{
  "contractName": "SmartMeterContract",
  "abi": [
    {
      "inputs": [],
      "payable": false,
      "stateMutability": "nonpayable",
      "type": "constructor",
      "signature": "constructor"
    },
    {
      "constant": true,
      "inputs": [
        {
          "internalType": "uint256",
          "name": "",
          "type": "uint256"
        }
      ],
      "name": "consumedValues",
      "outputs": [
        {
          "internalType": "int256",
          "name": "",
          "type": "int256"
        }
      ],
      "payable": false,
      "stateMutability": "view",
      "type": "function",
      "signature": "0xe8d3552c"
    },
    {
      "constant": true,
      "inputs": [],
      "name": "owner",
      "outputs": [
        {
          "internalType": "address payable",
          "name": "",
          "type": "address"
        }
      ],
      "payable": false,
      "stateMutability": "view",
      "type": "function",
      "signature": "0x8da5cb5b"
    },
    {
      "constant": true,
      "inputs": [
        {
          "internalType": "uint256",
          "name": "",
          "type": "uint256"
        }
      ],
      "name": "producedValues",
      "outputs": [
        {
          "internalType": "int256",
          "name": "",
          "type": "int256"
        }
      ],
      "payable": false,
      "stateMutability": "view",
      "type": "function",
      "signature": "0x0712a31d"
    },
    {
      "constant": false,
      "inputs": [
        {
          "internalType": "int256",
          "name": "value",
          "type": "int256"
        }
      ],
      "name": "addConsumedValue",
      "outputs": [],
      "payable": false,
      "stateMutability": "nonpayable",
      "type": "function",
      "signature": "0xf01cdee2"
    },
    {
      "constant": false,
      "inputs": [
        {
          "internalType": "int256",
          "name": "value",
          "type": "int256"
        }
      ],
      "name": "addProducedValue",
      "outputs": [],
      "payable": false,
      "stateMutability": "nonpayable",
      "type": "function",
      "signature": "0xd9708cbd"
    },
    {
      "constant": true,
      "inputs": [
        {
          "internalType": "uint256",
          "name": "index",
          "type": "uint256"
        }
      ],
      "name": "getProducedValue",
      "outputs": [
        {
          "internalType": "int256",
          "name": "",
          "type": "int256"
        }
      ],
      "payable": false,
      "stateMutability": "view",
      "type": "function",
      "signature": "0x8fb4895d"
    },
    {
      "constant": true,
      "inputs": [
        {
          "internalType": "uint256",
          "name": "index",
          "type": "uint256"
        }
      ],
      "name": "getConsumedValue",
      "outputs": [
        {
          "internalType": "int256",
          "name": "",
          "type": "int256"
        }
      ],
      "payable": false,
      "stateMutability": "view",
      "type": "function",
      "signature": "0x869e91cf"
    }
  ],
  "bytecode": "0x608060405234801561001057600080fd5b5060008054600160a060020a031916331790556102a7806100326000396000f3fe608060405234801561001057600080fd5b506004361061009a576000357c0100000000000000000000000000000000000000000000000000000000900480638fb4895d116100785780638fb4895d1461011c578063d9708cbd14610139578063e8d3552c14610158578063f01cdee2146101755761009a565b80630712a31d1461009f578063869e91cf146100ce5780638da5cb5b146100eb575b600080fd5b6100bc600480360360208110156100b557600080fd5b5035610192565b60408051918252519081900360200190f35b6100bc600480360360208110156100e457600080fd5b50356101b0565b6100f36101d1565b6040805173ffffffffffffffffffffffffffffffffffffffff9092168252519081900360200190f35b6100bc6004803603602081101561013257600080fd5b50356101ed565b6101566004803603602081101561014f57600080fd5b50356101fc565b005b6100bc6004803603602081101561016e57600080fd5b5035610231565b6101566004803603602081101561018b57600080fd5b503561023e565b6002818154811061019f57fe5b600091825260209091200154905081565b6000600182815481106101bf57fe5b90600052602060002001549050919050565b60005473ffffffffffffffffffffffffffffffffffffffff1681565b6000600282815481106101bf57fe5b600280546001810182556000919091527f405787fa12a823e0f2b7631cc41b3ba8828b3321ca811111fa75cd3aa3bb5ace0155565b6001818154811061019f57fe5b6001805480820182556000919091527fb10e2d527612073b26eecdfd717e6a320cf44b4afac2b0732d9fcbe2b7fa0cf6015556fea265627a7a72315820328e9e920d3796a23ab0ee393c21031a9d31b4b9d577fd8d6fd24156b98dcc7964736f6c63430005100032",
  "source": "pragma solidity >=0.4.21 <0.7.0;\r\n\r\n contract SmartMeterContract {\r\n\r\n    address payable public owner;\r\n    int[] public consumedValues;\r\n    int[] public producedValues;\r\n\r\n    constructor() public {\r\n        owner = msg.sender;\r\n    }\r\n\r\n    function addConsumedValue(int value) public {\r\n       consumedValues.push(value);\r\n    }\r\n\r\n    function addProducedValue(int value) public {\r\n      producedValues.push(value);\r\n    }\r\n\r\n    function getProducedValue(uint index) public view returns (int){\r\n        return producedValues[index];\r\n    }\r\n\r\n    function getConsumedValue(uint index) public view returns (int){\r\n        return consumedValues[index];\r\n    }\r\n }\r\n\r\n",
  "sourcePath": "C:/Users/Ana Maria/Desktop/contracts/SolidityContracts/contracts/SmartMeterContract.sol",
  "compiler": {
    "name": "solc",
    "version": "0.5.16+commit.9c3226ce.Emscripten.clang"
  },
  "schemaVersion": "3.0.3",
  "updatedAt": "2020-02-04T23:44:13.646Z",
  "devdoc": {
    "methods": {}
  },
  "userdoc": {
    "methods": {}
  }
}