{
  "contractName": "EnergyContract",
  "abi": [
    {
      "inputs": [],
      "payable": false,
      "stateMutability": "nonpayable",
      "type": "constructor"
    },
    {
      "constant": true,
      "inputs": [],
      "name": "owner",
      "outputs": [
        {
          "internalType": "address payable",
          "name": "",
          "type": "address"
        }
      ],
      "payable": false,
      "stateMutability": "view",
      "type": "function"
    },
    {
      "constant": false,
      "inputs": [
        {
          "internalType": "address",
          "name": "_address",
          "type": "address"
        },
        {
          "internalType": "int256",
          "name": "_value",
          "type": "int256"
        }
      ],
      "name": "incomingRequest",
      "outputs": [],
      "payable": false,
      "stateMutability": "nonpayable",
      "type": "function"
    },
    {
      "constant": false,
      "inputs": [
        {
          "internalType": "address",
          "name": "_address",
          "type": "address"
        },
        {
          "internalType": "int256",
          "name": "_value",
          "type": "int256"
        }
      ],
      "name": "incomingRelease",
      "outputs": [],
      "payable": false,
      "stateMutability": "nonpayable",
      "type": "function"
    },
    {
      "constant": false,
      "inputs": [
        {
          "internalType": "int256",
          "name": "_value",
          "type": "int256"
        }
      ],
      "name": "doMatching",
      "outputs": [],
      "payable": false,
      "stateMutability": "nonpayable",
      "type": "function"
    },
    {
      "constant": false,
      "inputs": [
        {
          "internalType": "address",
          "name": "sender_address",
          "type": "address"
        },
        {
          "internalType": "int256",
          "name": "_value",
          "type": "int256"
        }
      ],
      "name": "consume",
      "outputs": [],
      "payable": false,
      "stateMutability": "nonpayable",
      "type": "function"
    },
    {
      "constant": true,
      "inputs": [],
      "name": "check_request_counter",
      "outputs": [
        {
          "internalType": "uint256",
          "name": "",
          "type": "uint256"
        }
      ],
      "payable": false,
      "stateMutability": "view",
      "type": "function"
    },
    {
      "constant": true,
      "inputs": [],
      "name": "check_release_counter",
      "outputs": [
        {
          "internalType": "uint256",
          "name": "",
          "type": "uint256"
        }
      ],
      "payable": false,
      "stateMutability": "view",
      "type": "function"
    },
    {
      "constant": true,
      "inputs": [],
      "name": "get_request_value",
      "outputs": [
        {
          "internalType": "int256",
          "name": "",
          "type": "int256"
        }
      ],
      "payable": false,
      "stateMutability": "view",
      "type": "function"
    },
    {
      "constant": true,
      "inputs": [],
      "name": "get_release_value",
      "outputs": [
        {
          "internalType": "int256",
          "name": "",
          "type": "int256"
        }
      ],
      "payable": false,
      "stateMutability": "view",
      "type": "function"
    },
    {
      "constant": false,
      "inputs": [
        {
          "internalType": "address",
          "name": "my_address",
          "type": "address"
        }
      ],
      "name": "get_mapping_data",
      "outputs": [
        {
          "internalType": "address",
          "name": "",
          "type": "address"
        }
      ],
      "payable": false,
      "stateMutability": "nonpayable",
      "type": "function"
    },
    {
      "constant": true,
      "inputs": [
        {
          "internalType": "address",
          "name": "_address",
          "type": "address"
        }
      ],
      "name": "get_matching_value",
      "outputs": [
        {
          "internalType": "int256",
          "name": "",
          "type": "int256"
        }
      ],
      "payable": false,
      "stateMutability": "view",
      "type": "function"
    }
  ],
  "bytecode": "0x608060405234801561001057600080fd5b50336000806101000a81548173ffffffffffffffffffffffffffffffffffffffff021916908373ffffffffffffffffffffffffffffffffffffffff160217905550610ab4806100606000396000f3fe608060405234801561001057600080fd5b50600436106100a95760003560e01c8063862eb3fe11610071578063862eb3fe146101de5780638da5cb5b1461022c578063b78ec08814610276578063c592e96a146102a4578063d983924a146102c2578063ec5405cd146102e0576100a9565b8063095d15a4146100ae5780631de76ad0146100cc5780634991cdcb146100ea578063616b5299146101385780636337fea214610190575b600080fd5b6100b6610364565b6040518082815260200191505060405180910390f35b6100d46103dd565b6040518082815260200191505060405180910390f35b6101366004803603604081101561010057600080fd5b81019080803573ffffffffffffffffffffffffffffffffffffffff169060200190929190803590602001909291905050506103e7565b005b61017a6004803603602081101561014e57600080fd5b81019080803573ffffffffffffffffffffffffffffffffffffffff16906020019092919050505061048f565b6040518082815260200191505060405180910390f35b6101dc600480360360408110156101a657600080fd5b81019080803573ffffffffffffffffffffffffffffffffffffffff16906020019092919080359060200190929190505050610552565b005b61022a600480360360408110156101f457600080fd5b81019080803573ffffffffffffffffffffffffffffffffffffffff1690602001909291908035906020019092919050505061059d565b005b61023461064d565b604051808273ffffffffffffffffffffffffffffffffffffffff1673ffffffffffffffffffffffffffffffffffffffff16815260200191505060405180910390f35b6102a26004803603602081101561028c57600080fd5b8101908080359060200190929190505050610672565b005b6102ac6108d9565b6040518082815260200191505060405180910390f35b6102ca6108e3565b6040518082815260200191505060405180910390f35b610322600480360360208110156102f657600080fd5b81019080803573ffffffffffffffffffffffffffffffffffffffff16906020019092919050505061095d565b604051808273ffffffffffffffffffffffffffffffffffffffff1673ffffffffffffffffffffffffffffffffffffffff16815260200191505060405180910390f35b600060cb6000600360018054036064811061037b57fe5b0160009054906101000a900473ffffffffffffffffffffffffffffffffffffffff1673ffffffffffffffffffffffffffffffffffffffff1673ffffffffffffffffffffffffffffffffffffffff16815260200190815260200160002054905090565b6000600254905090565b8060cc60008473ffffffffffffffffffffffffffffffffffffffff1673ffffffffffffffffffffffffffffffffffffffff168152602001908152602001600020819055508160676002546064811061043b57fe5b0160006101000a81548173ffffffffffffffffffffffffffffffffffffffff021916908373ffffffffffffffffffffffffffffffffffffffff16021790555060016002600082825401925050819055505050565b6000610499610a4f565b60cd60008473ffffffffffffffffffffffffffffffffffffffff1673ffffffffffffffffffffffffffffffffffffffff1681526020019081526020016000206040518060400160405290816000820160009054906101000a900473ffffffffffffffffffffffffffffffffffffffff1673ffffffffffffffffffffffffffffffffffffffff1673ffffffffffffffffffffffffffffffffffffffff16815260200160018201548152505090508060200151915050919050565b8060cd60008473ffffffffffffffffffffffffffffffffffffffff1673ffffffffffffffffffffffffffffffffffffffff168152602001908152602001600020600101819055505050565b8060cb60008473ffffffffffffffffffffffffffffffffffffffff1673ffffffffffffffffffffffffffffffffffffffff16815260200190815260200160002060008282540192505081905550816003600154606481106105fa57fe5b0160006101000a81548173ffffffffffffffffffffffffffffffffffffffff021916908373ffffffffffffffffffffffffffffffffffffffff160217905550600180600082825401925050819055505050565b6000809054906101000a900473ffffffffffffffffffffffffffffffffffffffff1681565b8060cb6000600360018054036064811061068857fe5b0160009054906101000a900473ffffffffffffffffffffffffffffffffffffffff1673ffffffffffffffffffffffffffffffffffffffff1673ffffffffffffffffffffffffffffffffffffffff168152602001908152602001600020600082825403925050819055508060cc600060676001600254036064811061070857fe5b0160009054906101000a900473ffffffffffffffffffffffffffffffffffffffff1673ffffffffffffffffffffffffffffffffffffffff1673ffffffffffffffffffffffffffffffffffffffff16815260200190815260200160002060008282540192505081905550610779610a4f565b600360018054036064811061078a57fe5b0160009054906101000a900473ffffffffffffffffffffffffffffffffffffffff16816000019073ffffffffffffffffffffffffffffffffffffffff16908173ffffffffffffffffffffffffffffffffffffffff1681525050818160200181815250508060cd600060676001600254036064811061080457fe5b0160009054906101000a900473ffffffffffffffffffffffffffffffffffffffff1673ffffffffffffffffffffffffffffffffffffffff1673ffffffffffffffffffffffffffffffffffffffff16815260200190815260200160002060008201518160000160006101000a81548173ffffffffffffffffffffffffffffffffffffffff021916908373ffffffffffffffffffffffffffffffffffffffff160217905550602082015181600101559050506001806000828254039250508190555060016002600082825403925050819055505050565b6000600154905090565b600060cc60006067600160025403606481106108fb57fe5b0160009054906101000a900473ffffffffffffffffffffffffffffffffffffffff1673ffffffffffffffffffffffffffffffffffffffff1673ffffffffffffffffffffffffffffffffffffffff16815260200190815260200160002054905090565b600060cd60008373ffffffffffffffffffffffffffffffffffffffff1673ffffffffffffffffffffffffffffffffffffffff1681526020019081526020016000206001015460cc60008473ffffffffffffffffffffffffffffffffffffffff1673ffffffffffffffffffffffffffffffffffffffff1681526020019081526020016000208190555060cd60008373ffffffffffffffffffffffffffffffffffffffff1673ffffffffffffffffffffffffffffffffffffffff16815260200190815260200160002060000160009054906101000a900473ffffffffffffffffffffffffffffffffffffffff169050919050565b6040518060400160405280600073ffffffffffffffffffffffffffffffffffffffff16815260200160008152509056fea265627a7a72315820eac2316ced8a81b3c23af57ce9f3f0c1273d87653d911f313adacbccd315d47964736f6c63430005100032",
  "source": "pragma solidity >=0.4.21 <0.7.0;\n\ncontract EnergyContract {\n\n\tstruct matched_entry{\n\t\taddress _address;\n\t\tint _value;\n\t}\n\n\taddress payable public owner;\n\tuint request_counter;\n\tuint release_counter;\n\taddress[100] pending_requests;\n\taddress[100] pending_release;\n\tmapping (address => int) request;\n\tmapping (address => int) release;\n\tmapping(address => matched_entry) matching;\n\n\tconstructor() public {\n\t    owner = msg.sender;\n\t}\n\t// producer putting energy to give on the blockchain\n\tfunction incomingRequest(address _address, int _value) public {\n\t   request[_address] += _value;\n\t   pending_requests[request_counter] = _address;\n\t   request_counter += 1;\n\t}\n\n\t// consumer putting energy requirement on blockchain\n\tfunction incomingRelease(address _address, int _value) public {\n\t\trelease[_address] = _value;\n\t\tpending_release[release_counter] = _address;\n\t\trelease_counter += 1;\n\t}\n\n\t// aggregator matching producer and consumer\n\tfunction doMatching(int _value) public{\n\t    request[pending_requests[request_counter-1]] -= _value;\n\t    release[pending_release[release_counter-1]] += _value;\n\t    matched_entry memory entry;\n\t    entry._address = pending_requests[request_counter-1];\n\t    entry._value = _value;\n\t    matching[pending_release[release_counter-1]] = entry;\n\t    request_counter -= 1;\n\t    release_counter -= 1;\n\t}\n\n\t// function called by consumer entity after checking get_mapping_data\n\tfunction consume(address sender_address, int _value) public {\n\t    matching[sender_address]._value = _value;\n\t}\n\n\t// fetching outstanding energy request, 0 means no producer\n\tfunction check_request_counter() public view returns (uint){\n\t\treturn request_counter;\n\t}\n\n\t// fetching outstanding energy consumption request, 0 means no consumer\n\tfunction check_release_counter()public view returns (uint){\n\t\treturn release_counter;\n\t}\n\n\t// fetch the value from the request queue\n\tfunction get_request_value() public view returns (int) {\n\t\treturn request[pending_requests[request_counter-1]];\n\t}\n\n\t// fetch the value from release queue\n\tfunction get_release_value() public view returns (int) {\n\t\treturn release[pending_release[release_counter-1]];\n\t}\n\n\t// get the data and address to give to consumer's meter\n\tfunction get_mapping_data(address my_address) public returns (address) {\n\t\trelease[my_address] = matching[my_address]._value; \n\t\treturn matching[my_address]._address;\n\t}\n\n\t// \n\tfunction get_matching_value(address _address) public view returns (int){\n\t\tmatched_entry memory tmp = matching[_address];\n\t\treturn tmp._value;\n\t\t}\n}",
  "sourcePath": "/home/xx/IMDEA_HCKTON/energy-chain/contracts/EnergyContract.sol",
  "compiler": {
    "name": "solc",
    "version": "0.5.16+commit.9c3226ce.Emscripten.clang"
  },
  "schemaVersion": "3.0.23",
  "updatedAt": "2020-02-05T08:08:52.731Z",
  "networkType": "ethereum",
  "devdoc": {
    "methods": {}
  },
  "userdoc": {
    "methods": {}
  }
}